:020000040800F2
:1020000000800120211002086910020869100208EE
:102010006910020869100208691002080000000037
:10202000000000000000000000000000691002082D
:10203000691002080000000069100208DD1702089C
:102040006910020869100208691002086910020884
:102050006910020869100208691002086910020874
:102060006910020869100208691002086910020864
:102070006910020869100208691002086910020854
:102080006910020869100208691002087914020830
:102090008514020869100208691002086910020814
:1020A0006910020869100208691002086910020824
:1020B0006910020869100208691002084DBD010884
:1020C00065BD010829BE010841BE0108691002086A
:1020D0006910020800000000691002086910020877
:1020E00069100208691002089114020869100208B8
:1020F00069100208691002086910020869100208D4
:1021000069100208691002086910020869100208C3
:1021100069100208691002086910020869100208B3
:1021200069100208691002086910020869100208A3
:1021300010F8012B11F8013B012A28BF9A42F7D071
:10214000D01A7047034613F8012B002AFBD1181A46
:10215000013870470000000000000000000000008F
:1021600001F0FF01102A2BDB10F0070F08D010F848
:10217000013B013A8B422DD010F0070F42B3F6D14C
:10218000F0B441EA012141EA014122F007047FF065
:1021900000070023F0E80256083C85EA010586EABC
:1021A000010685FA47F5A3FA87F586FA47F6A5FAF8
:1021B00087F68EB9EED1F0BC01F0FF0102F0070204
:1021C00032B110F8013B013A83EA010313B1F8D1AF
:1021D0000020704701387047002D06BF3546033890
:1021E000073815F0010F07D1013015F4807F02BFC9
:1021F000013015F4C03F0130F0BC0138704700BF1A
:1022000081F0004102E000BF83F0004330B54FEAA7
:1022100041044FEA430594EA050F08BF90EA020F14
:102220001FBF54EA000C55EA020C7FEA645C7FEAA7
:10223000655C00F0E2804FEA5454D4EB5555B8BFCA
:102240006D420CDD2C4480EA020281EA030382EA3B
:10225000000083EA010180EA020281EA0303362DCD
:1022600088BF30BD11F0004F4FEA01314FF4801CA0
:102270004CEA113102D0404261EB410113F0004FB2
:102280004FEA03334CEA133302D0524263EB430369
:1022900094EA050F00F0A780A4F10104D5F1200E07
:1022A0000DDB02FA0EFC22FA05F2801841F1000162
:1022B00003FA0EF2801843FA05F359410EE0A5F136
:1022C00020050EF1200E012A03FA0EFC28BF4CF067
:1022D000020C43FA05F3C01851EBE37101F000451D
:1022E00007D54FF0000EDCF1000C7EEB00006EEB2A
:1022F0000101B1F5801F1BD3B1F5001F0CD34908B4
:102300005FEA30004FEA3C0C04F101044FEA44520A
:1023100012F5800F80F09A80BCF1004F08BF5FEA91
:10232000500C50F1000041EB045141EA050130BD71
:102330005FEA4C0C404141EB0101013C28BFB1F583
:10234000801FE9D291F0000F04BF01460020B1FACE
:1023500081F308BF2033A3F10B03B3F120020CDAA1
:102360000C3208DD02F1140CC2F10C0201FA0CF07F
:1023700021FA02F10CE002F11402D8BFC2F1200CE4
:1023800001FA02F120FA0CFCDCBF41EA0C0190409A
:10239000E41AA2BF01EB0451294330BD6FEA0404E3
:1023A0001F3C1CDA0C340EDC04F11404C4F12002CE
:1023B00020FA04F001FA02F340EA030021FA04F3E0
:1023C00045EA030130BDC4F10C04C4F1200220FA37
:1023D00002F001FA04F340EA0300294630BD21FA75
:1023E00004F0294630BD94F0000F83F4801306BF3B
:1023F00081F480110134013D4EE77FEA645C18BF2F
:102400007FEA655C29D094EA050F08BF90EA020FC5
:1024100005D054EA000C04BF1946104630BD91EABD
:10242000030F1EBF0021002030BD5FEA545C05D1C0
:102430004000494128BF41F0004130BD14F58004FF
:102440003CBF01F5801130BD01F0004545F0FE4173
:1024500041F470014FF0000030BD7FEA645C1ABFA8
:10246000194610467FEA655C1CBF0B46024650EADF
:10247000013406BF52EA033591EA030F41F400210B
:1024800030BD00BF90F0000F04BF0021704730B591
:102490004FF4806404F132044FF000054FF0000166
:1024A00050E700BF90F0000F04BF0021704730B527
:1024B0004FF4806404F1320410F0004548BF4042FC
:1024C0004FF000013EE700BF42004FEAE2014FEA51
:1024D00031014FEA02701FBF12F07F4393F07F4F2C
:1024E00081F06051704732F07F4208BF704793F02F
:1024F0007F4F04BF41F40021704730B54FF4607442
:1025000001F0004521F000411CE700BF50EA010244
:1025100008BF704730B54FF000050AE050EA0102ED
:1025200008BF704730B511F0004502D5404261EB5D
:1025300041014FF4806404F132045FEA915C3FF49E
:10254000D8AE4FF003025FEADC0C18BF03325FEA3B
:10255000DC0C18BF033202EBDC02C2F1200300FAEC
:1025600003FC20FA02F001FA03FE40EA0E0021FA11
:1025700002F11444BDE600BF70B54FF0FF0C4CF4FF
:10258000E06C1CEA11541DBF1CEA135594EA0C0FB1
:1025900095EA0C0F00F0DEF82C4481EA030621EAEC
:1025A0004C5123EA4C5350EA013518BF52EA033527
:1025B00041F4801143F4801338D0A0FB02CE4FF0D9
:1025C0000005E1FB02E506F00042E0FB03E54FF009
:1025D0000006E1FB03569CF0000F18BF4EF0010E01
:1025E000A4F1FF04B6F5007F64F5407404D25FEAFD
:1025F0004E0E6D4146EB060642EAC62141EA5551B0
:102600004FEAC52040EA5E504FEACE2EB4F1FD0CF1
:1026100088BFBCF5E06F1ED8BEF1004F08BF5FEA6F
:10262000500E50F1000041EB045170BD06F0004621
:1026300046EA010140EA020081EA0301B4EB5C04CE
:10264000C2BFD4EB0C0541EA045170BD41F48011C6
:102650004FF0000E013C00F3AB8014F1360FDEBFEB
:10266000002001F0004170BDC4F10004203C35DAC7
:102670000C341BDC04F11404C4F1200500FA05F34A
:1026800020FA04F001FA05F240EA020001F00042EB
:1026900021F0004110EBD37021FA04F642EB060161
:1026A0005EEA430E08BF20EAD37070BDC4F10C048B
:1026B000C4F1200500FA04F320FA05F001FA04F24F
:1026C00040EA020001F0004110EBD37041F100013B
:1026D0005EEA430E08BF20EAD37070BDC4F1200546
:1026E00000FA05F24EEA020E20FA04F301FA05F2AE
:1026F00043EA020321FA04F001F0004121FA04F256
:1027000020EA020000EBD3705EEA430E08BF20EA25
:10271000D37070BD94F0000F0FD101F0004640005F
:1027200041EB010111F4801F08BF013CF7D041EAE1
:10273000060195F0000F18BF704703F000465200E5
:1027400043EB030313F4801F08BF013DF7D043EAB6
:102750000603704794EA0C0F0CEA135518BF95EA6C
:102760000C0F0CD050EA410618BF52EA4306D1D1F3
:1027700081EA030101F000414FF0000070BD50EA12
:10278000410606BF1046194652EA430619D094EA9C
:102790000C0F02D150EA013613D195EA0C0F05D186
:1027A00052EA03361CBF104619460AD181EA0301DA
:1027B00001F0004141F0FE4141F470014FF0000092
:1027C00070BD41F0FE4141F4780170BD70B54FF02D
:1027D000FF0C4CF4E06C1CEA11541DBF1CEA1355AD
:1027E00094EA0C0F95EA0C0F00F0A7F8A4EB05048F
:1027F00081EA030E52EA03354FEA013100F0888086
:102800004FEA03334FF0805545EA131343EA12634E
:102810004FEA022245EA111545EA10654FEA002603
:102820000EF000419D4208BF964244F1FD0404F5BC
:10283000407402D25B084FEA3202B61A65EB030518
:102840005B084FEA32024FF480104FF4002CB6EBD5
:10285000020E75EB030E22BFB61A754640EA0C0055
:102860005B084FEA3202B6EB020E75EB030E22BF95
:10287000B61A754640EA5C005B084FEA3202B6EBD6
:10288000020E75EB030E22BFB61A754640EA9C0095
:102890005B084FEA3202B6EB020E75EB030E22BF65
:1028A000B61A754640EADC0055EA060E18D04FEA23
:1028B000051545EA16754FEA06164FEAC30343EAC3
:1028C00052734FEAC2025FEA1C1CC0D111F4801F90
:1028D0000BD141EA00014FF000004FF0004CB6E789
:1028E00011F4801F04BF01430020B4F1FD0C88BF28
:1028F000BCF5E06F3FF6AFAEB5EB030C04BFB6EB33
:10290000020C5FEA500C50F1000041EB045170BD25
:102910000EF0004E4EEA113114EB5C04C2BFD4EB52
:102920000C0541EA045170BD41F480114FF0000ED6
:10293000013C90E645EA060E8DE60CEA135594EA52
:102940000C0F08BF95EA0C0F3FF43BAF94EA0C0F55
:102950000AD150EA01347FF434AF95EA0C0F7FF4CA
:1029600025AF104619462CE795EA0C0F06D152EA1E
:1029700003353FF4FDAE1046194622E750EA410602
:1029800018BF52EA43067FF4C5AE50EA41047FF413
:102990000DAF52EA43057FF4EBAE12E74FF0FF3C78
:1029A00006E000BF4FF0010C02E000BF4FF0010C49
:1029B0004DF804CD4FEA410C7FEA6C5C4FEA430CC2
:1029C00018BF7FEA6C5C1BD001B050EA410C0CBF11
:1029D00052EA430C91EA030F02BF90EA020F002073
:1029E000704710F1000F91EA030F58BF994208BFDA
:1029F00090422CBFD8176FEAE37040F00100704797
:102A00004FEA410C7FEA6C5C02D150EA013C07D1ED
:102A10004FEA430C7FEA6C5CD6D152EA033CD3D038
:102A20005DF8040B704700BF8446104662468C4632
:102A30001946634600E000BF01B5FFF7B7FF002865
:102A400048BF10F1000F01BD4DF808EDFFF7F4FF8E
:102A50000CBF012000205DF808FB00BF4DF808ED19
:102A6000FFF7EAFF34BF012000205DF808FB00BF3C
:102A70004DF808EDFFF7E0FF94BF012000205DF85E
:102A800008FB00BF4DF808EDFFF7CEFF94BF012013
:102A900000205DF808FB00BF4DF808EDFFF7C4FF0C
:102AA00034BF012000205DF808FB00BF4FEA410C55
:102AB0007FEA6C5C02D150EA013C0AD14FEA430C38
:102AC0007FEA6C5C02D152EA033C02D14FF0000075
:102AD00070474FF0010070474FEA410212F50012B3
:102AE00015D211D56FF47873B3EB625212D94FEA55
:102AF000C12343F0004343EA505311F0004F23FA3F
:102B000002F018BF404270474FF00000704750EA93
:102B1000013005D111F0004008BF6FF00040704750
:102B20004FF00000704700BF10B5054C237833B953
:102B3000044B13B10448AFF300800123237010BD90
:102B40004C040020000000003C49020808B5034B7B
:102B50001BB103490348AFF3008008BD000000002B
:102B6000500400203C49020880B483B000AF786074
:102B70000B46FB701346BB707B68FA781A707B6853
:102B8000BA785A707B6818460C37BD4680BC7047CF
:102B900080B483B000AF78600B46FB707B68FA7836
:102BA0005A7000BF0C37BD4680BC704780B483B0FC
:102BB00000AF78600B46FB707B68FA781A7000BF34
:102BC0000C37BD4680BC704780B483B000AF7860DE
:102BD0007B6818460C37BD4680BC704780B582B014
:102BE00000AF786019F0F6FB034618460837BD467B
:102BF00080BD80B483B000AF78600B46FB707B680B
:102C0000FA781A7000BF0C37BD4680BC704780B49C
:102C100083B000AF786000BF0C37BD4680BC704702
:102C200080B483B000AF786000BF0C37BD4680BC75
:102C3000704780B483B000AF786000BF0C37BD46EA
:102C400080BC704780B483B000AF7860397000BF3B
:102C50000C37BD4680BC704780B582B000AF78604D
:102C60007B681B681B6878689847002318460837FC
:102C7000BD4680BD80B483B000AF786039603B68EA
:102C800018460C37BD4680BC704780B582B000AF97
:102C900078607B681B681B687868984700BF0837B6
:102CA000BD4680BD80B483B000AF786000BF0C37F4
:102CB000BD4680BC7047000080B400AF024B184690
:102CC000BD4680BC704700BF4005002080B582B083
:102CD00000AF7860FFF7F0FF03461846FFF77EFF6E
:102CE000034618460837BD4680BD80B483B000AFA8
:102CF00078607B681B79C3F30603DBB218460C3798
:102D0000BD4680BC704780B483B000AF78600023BC
:102D100018460C37BD4680BC704780B582B000AF06
:102D2000786064201EF0AAFC00BF0837BD4680BD55
:102D300080B584B000AF78603960124BFB603968B1
:102D4000114811F09DFA0346002B05D0F9680E4892
:102D500000F058FC034611E0FA6839680A4811F09F
:102D6000A1FA034683F00103DBB2002B01D000235C
:102D700004E00649044800F05FFC002318461037C1
:102D8000BD4680BD58490208C4470020604902087A
:102D900080B582B000AF786039603968034813F0BD
:102DA000C3F8034618460837BD4680BDFC470020DF
:102DB00080B483B000AF7860044A7B681A607B6897
:102DC00018460C37BD4680BC704700BF1053020840
:102DD00080B582B000AF786039607B681846FFF735
:102DE000E7FF054A7B681A607B683A685A607B682F
:102DF00018460837BD4680BD7C56020880B483B0B3
:102E000000AF78607B6893F82A3083F00103DAB270
:102E10007B6883F82A2000BF0C37BD4680BC704712
:102E200080B483B000AF78600B46FB70FB78632BF7
:102E300004D87B68FA7883F82B2003E07B680022B3
:102E400083F82B2000BF0C37BD4680BC704780B490
:102E500083B000AF78600B46FB707B68FA7883F82C
:102E60002E2000BF0C37BD4680BC704780B483B0B5
:102E700000AF78600B467B807B687A889A8000BFC1
:102E80000C37BD4680BC704780B582B000AF78601B
:102E900039603968034813F047F803461846083785
:102EA000BD4680BDFC47002080B500AF00F0E6FBCA
:102EB00000BF80BD80B582B000AF78603960FFF799
:102EC000FBFE386800F0E2FB034618460837BD46B3
:102ED00080BD000080B582B000AF0346FB71FB7976
:102EE00003F00203002B0CD0FB7903F00103002B4D
:102EF00007D10649064812F071FC0649044812F051
:102F00006DFC00BF0837BD4680BD00BF68490208A0
:102F1000F847002060490208B0B584B000AF78607F
:102F20007B685B7803F00203002B2ED07B685B7814
:102F300003F00103002B28D17B689D1C07F10C03D3
:102F4000002204211846FFF70FFE07F10C03184674
:102F5000FFF73AFE03461C781EF070FB01460D4B4E
:102F6000A3FB0123DA081346DB0013449B00CA1AB3
:102F7000D3B22344DBB219462846FFF717FE7B681D
:102F8000023300211846FFF703FE00BF1037BD468D
:102F9000B0BD00BF398EE33880B582B000AF786035
:102FA0007B685B7803F00203002B0BD07B685B78B7
:102FB00003F00103002B05D1044B1B7818460DF0DC
:102FC0007DF900E000BF0837BD4680BD69040020E0
:102FD00080B582B000AF78607B685B7803F0020355
:102FE000002B0ED07B685B7803F00103002B08D127
:102FF000064B00221A70054B1B7818460DF05EF93F
:1030000000E000BF0837BD4680BD00BF6904002056
:1030100080B582B000AF78607B685B7803F0020314
:10302000002B0ED07B685B7803F00103002B08D1E6
:10303000064B03221A70054B1B7818460DF03EF91B
:1030400000E000BF0837BD4680BD00BF6904002016
:1030500080B582B000AF78607B685B7803F00203D4
:10306000002B0ED07B685B7803F00103002B08D1A6
:10307000064B07221A70054B1B7818460DF01EF9F7
:1030800000E000BF0837BD4680BD00BF69040020D6
:1030900080B582B000AF03463960FB71FB79062B27
:1030A0003BD801A252F823F0C5300008D130000807
:1030B000D9300008F9300008013100080931000852
:1030C000113100083B685B781846FFF703FF24E0E6
:1030D0003868FFF721FF20E03B685B7803F00203CC
:1030E000002B19D03B685B7803F00103002B13D150
:1030F0000C48FFF783FE0FE03868FFF74DFF0CE048
:103100003868FFF765FF08E03868FFF781FF04E0E3
:103110003868FFF79DFF00E000BF0023184608371E
:10312000BD4680BD5448002080B582B000AF034644
:10313000FB71FB79012B02DC002B03DA08E0022B88
:1031400003D005E00DF01CFC02E00DF035FC00BFE3
:1031500000BF0837BD4680BD80B582B000AF0346D2
:10316000FB71FB791846FFF7DFFF00BF0837BD464C
:1031700080BD000080B582B000AF0346FB710348FC
:1031800014F00EFF00BF0837BD4680BD5048002038
:1031900080B483B000AF0346FB71084B1B68084A3C
:1031A000934203D1054B074A1A6002E0034B044ADD
:1031B0001A6000BF0C37BD4680BC70470800002075
:1031C000B1010108693B010880B582B000AF034638
:1031D000FB7114F039FD00BF0837BD4680BD80B4D7
:1031E00000AF00231846BD4680BC704780B500AFD5
:1031F00000F05CFA0346184680BD80B400AF00239F
:103200001846BD4680BC704780B500AF00F018FD81
:103210000346184680BD80B400AF00231846BD4663
:1032200080BC704780B500AF00F0D4FF034618465D
:1032300080BD80B400AF01231846BD4680BC7047F6
:1032400080B582B000AF7860786801F08DFA0346EF
:1032500018460837BD4680BD80B400AF012318462C
:10326000BD4680BC704780B582B000AF786078689A
:1032700001F064FD034618460837BD4680BD80B4A2
:1032800000AF01231846BD4680BC704780B582B0B0
:1032900000AFB8803B1D184602F03AF803461846C6
:1032A0000837BD4680BD80B400AF01231846BD4637
:1032B00080BC704780B582B000AF78603B1D184677
:1032C00002F010FB034618460837BD4680BD80B4A7
:1032D00000AF00231846BD4680BC704780B500AFE4
:1032E00002F0EAFD0346184680BD80B400AF00231B
:1032F0001846BD4680BC704780B500AF03F0A6F805
:103300000346184680BD80B400AF00231846BD4672
:1033100080BC704780B500AF03F062FB03461846DF
:1033200080BD80B400AF01231846BD4680BC704705
:1033300080B582B000AF7860786803F01BFE03466A
:1033400018460837BD4680BD80B400AF002318463C
:10335000BD4680BC704780B582B000AF78607868A9
:1033600004F0F2F8034618460837BD4680BD80B425
:1033700000AF00231846BD4680BC704780B500AF43
:1033800004F0CCFB0346184680BD000080B400AFBB
:10339000024B1B781846BD4680BC70470553020897
:1033A00080B582B000AF03463960FB71FB79DB006A
:1033B000054A13440822194638681EF091FA00BFE6
:1033C0000837BD4680BD00BFE452020880B500AF9B
:1033D0003048FFF767FC3048FFF764FC2F48FFF7E1
:1033E00061FC2F48FFF75EFC2E48FFF75BFC2E4880
:1033F000FFF758FC2D48FFF755FC2D48FFF752FC0E
:103400002C48FFF74FFC2C48FFF74CFC2B48FFF7EC
:1034100049FC2B48FFF746FC2A48FFF743FC2A48A3
:10342000FFF740FC2948FFF73DFC2948FFF73AFC2D
:103430002848FFF737FC2848FFF734FC2748FFF7F8
:1034400031FC2748FFF72EFC2648FFF72BFC2648C7
:10345000FFF728FC2548FFF718FC2548FFF722FC5A
:103460002448FFF71FFC2448FFF71CFC2348FFF704
:1034700019FC2348FFF716FC2248FFF713FC2248EB
:10348000FFF710FC2148FFF70DFC2148FFF70AFC6D
:1034900000BF80BDA8470020C0470020C4470020CF
:1034A000B0470020B447002068040020E448002012
:1034B0003C4800204448002054480020540000208C
:1034C000944800207400002098480020F84700200D
:1034D0009C48002014000020E847002050000020F5
:1034E000F448002010480020240500203405002066
:1034F000400000203400002020480020440000202C
:103500004C4800203048002034480020504800201B
:103510004848002080B500AF264B1B6818460BF0CA
:10352000E3FC254B55221A70244B00221A70234BC2
:1035300000225A70214BFF229A70372014F0B8F9FC
:103540001F4B1B6803F00103002B05D11D4812F02F
:103550002FFF1B4B01221A601B4B1A4A1A600820CE
:1035600010F0A8FA0821194813F0ECFD4FF480611F
:10357000174817F0E7FA1748FFF7B7FB0346184656
:103580000CF09CFE8821144817F00CFC13491448D9
:1035900014F09CF84FF4FA711248FFF767FC5A21B7
:1035A0001148FFF73DFC64210F48FFF750FC00BFB6
:1035B00080BD00BF205302082E00002038000020EC
:1035C000BC040020B804002014480020440000205F
:1035D0009C480020A8470020E44800203405002033
:1035E0003C480020540000205448002080B500AF23
:1035F000034B1B6818460BF0A9FC00BF80BD00BF41
:103600002053020880B582B000AF78603960094865
:10361000FFF75CFB0346396818461AF01EFB786812
:10362000FFF77BFB7868FFF76EFB03461846083709
:10363000BD4680BDC404002080B582B000AF786074
:1036400039600D48FFF742FB0346396818461AF007
:1036500053FA7868FFF761FB0748FFF737FB03462B
:10366000202118461AF064FA7868FFF756FB00BF6D
:103670000837BD4680BD00BFC404002080B500AF40
:1036800004F07AFD0346184680BD000080B582B084
:1036900000AF78600722044978681EF021F90723FB
:1036A00018460837BD4680BD9449020880B582B0EF
:1036B00000AFB44805F02AF80346FB71FFF78FFD11
:1036C0000346002B04D0FB79002B01D0012300E03E
:1036D0000023002B01D0FB7991E2AB4805F026F8DE
:1036E0000346FB71FFF77BFD0346002B04D0FB79FB
:1036F000002B01D0012300E00023002B01D0FB7937
:103700007DE2A24805F022F80346FB71FFF767FD52
:103710000346002B04D0FB79002B01D0012300E0ED
:103720000023002B01D0FB7969E2994805F01EF8CF
:103730000346FB71FFF753FD0346002B04D0FB79D2
:10374000002B01D0012300E00023002B01D0FB79E6
:1037500055E2904805F01AF80346FB71FFF73FFD6C
:103760000346002B04D0FB79002B01D0012300E09D
:103770000023002B01D0FB7941E2874805F016F8C1
:103780000346FB71FFF72BFD0346002B04D0FB79AA
:10379000002B01D0012300E00023002B01D0FB7996
:1037A0002DE27E4805F012F80346FB71FFF717FD86
:1037B0000346002B04D0FB79002B01D0012300E04D
:1037C0000023002B01D0FB7919E2754805F00EF8B3
:1037D0000346FB71FFF703FD0346002B04D0FB7982
:1037E000002B01D0012300E00023002B01D0FB7946
:1037F00005E26C4805F00AF80346FB71FFF7EFFCA1
:103800000346002B04D0FB79002B01D0012300E0FC
:103810000023002B01D0FB79F1E1634805F006F8A5
:103820000346FB71FFF7DBFC0346002B04D0FB795A
:10383000002B01D0012300E00023002B01D0FB79F5
:10384000DDE15A4805F002F80346FB71FFF7C7FCBB
:103850000346002B04D0FB79002B01D0012300E0AC
:103860000023002B01D0FB79C9E1514804F0FEFF91
:103870000346FB71FFF7B3FC0346002B04D0FB7932
:10388000002B01D0012300E00023002B01D0FB79A5
:10389000B5E1484804F0FAFF0346FB71FFF79FFCCF
:1038A0000346002B04D0FB79002B01D0012300E05C
:1038B0000023002B01D0FB79A1E13F4804F0F6FF83
:1038C0000346FB71FFF78BFC0346002B04D0FB790A
:1038D000002B01D0012300E00023002B01D0FB7955
:1038E0008DE1364804F0F2FF0346FB71FFF777FCE9
:1038F0000346002B04D0FB79002B01D0012300E00C
:103900000023002B01D0FB7979E12D4804F0EEFF74
:103910000346FB71FFF763FC0346002B04D0FB79E1
:10392000002B01D0012300E00023002B01D0FB7904
:1039300065E1244804F0EAFF0346FB71FFF74FFC02
:103940000346002B04D0FB79002B01D0012300E0BB
:103950000023002B01D0FB7951E11B4804F0E6FF66
:103960000346FB71FFF73BFC0346002B04D0FB79B9
:10397000002B01D0012300E00023002B26D0FB798F
:103980003DE100BFA8470020C0470020C4470020F9
:10399000B0470020B447002068040020E44800201D
:1039A0003C48002044480020544800205400002097
:1039B000944800207400002098480020F847002018
:1039C0009C48002014000020E84700208E4804F0A6
:1039D000BDFF0346FB71FFF702FC0346002B04D03A
:1039E000FB79002B01D0012300E00023002B01D044
:1039F000FB7904E1854804F0B9FF0346FB71FFF74A
:103A0000EEFB0346002B04D0FB79002B01D00123F1
:103A100000E00023002B01D0FB79F0E07C4804F0AB
:103A2000B5FF0346FB71FFF7DAFB0346002B04D01A
:103A3000FB79002B01D0012300E00023002B01D0F3
:103A4000FB79DCE0734804F0B1FF0346FB71FFF73C
:103A5000C6FB0346002B04D0FB79002B01D00123C9
:103A600000E00023002B01D0FB79C8E06A4804F095
:103A7000ADFF0346FB71FFF7B2FB0346002B04D0FA
:103A8000FB79002B01D0012300E00023002B01D0A3
:103A9000FB79B4E0614804F0A9FF0346FB71FFF72E
:103AA0009EFB0346002B04D0FB79002B01D00123A1
:103AB00000E00023002B01D0FB79A0E0584804F07F
:103AC000A5FF0346FB71FFF78AFB0346002B04D0DA
:103AD000FB79002B01D0012300E00023002B01D053
:103AE000FB798CE04F4804F0A1FF0346FB71FFF720
:103AF00076FB0346002B04D0FB79002B01D0012379
:103B000000E00023002B01D0FB7978E0464804F068
:103B10009DFF0346FB71FFF762FB0346002B04D0B9
:103B2000FB79002B01D0012300E00023002B01D002
:103B3000FB7964E03D4804F099FF0346FB71FFF711
:103B40004EFB0346002B04D0FB79002B01D0012350
:103B500000E00023002B01D0FB7950E0344804F052
:103B600095FF0346FB71FFF73AFB0346002B04D099
:103B7000FB79002B01D0012300E00023002B01D0B2
:103B8000FB793CE02B4804F091FF0346FB71FFF703
:103B900026FB0346002B04D0FB79002B01D0012328
:103BA00000E00023002B01D0FB7928E0224804F03C
:103BB0008DFF0346FB71FFF712FB0346002B04D079
:103BC000FB79002B01D0012300E00023002B01D062
:103BD000FB7914E0194804F089FF0346FB71FFF7F5
:103BE000FEFA0346002B04D0FB79002B01D0012301
:103BF00000E00023002B01D0FB7900E0FB791846A0
:103C00000837BD4680BD00BF50000020F4480020AA
:103C1000104800202405002034050020400000202A
:103C20003400002020480020440000204C480020A0
:103C300030480020344800205048002048480020E8
:103C400080B582B000AFB44804F060FF0346FB715A
:103C5000FFF7D3FA0346002B04D0FB79002B01D0E9
:103C6000012300E00023002B01D0FB7991E2AB4857
:103C700004F05CFF0346FB71FFF7BFFA0346002B1D
:103C800004D0FB79002B01D0012300E00023002B9E
:103C900001D0FB797DE2A24804F058FF0346FB7196
:103CA000FFF7ABFA0346002B04D0FB79002B01D0C1
:103CB000012300E00023002B01D0FB7969E2994841
:103CC00004F054FF0346FB71FFF797FA0346002BFD
:103CD00004D0FB79002B01D0012300E00023002B4E
:103CE00001D0FB7955E2904804F050FF0346FB7188
:103CF000FFF783FA0346002B04D0FB79002B01D099
:103D0000012300E00023002B01D0FB7941E287482A
:103D100004F04CFF0346FB71FFF76FFA0346002BDC
:103D200004D0FB79002B01D0012300E00023002BFD
:103D300001D0FB792DE27E4804F048FF0346FB7179
:103D4000FFF75BFA0346002B04D0FB79002B01D070
:103D5000012300E00023002B01D0FB7919E2754814
:103D600004F044FF0346FB71FFF747FA0346002BBC
:103D700004D0FB79002B01D0012300E00023002BAD
:103D800001D0FB7905E26C4804F040FF0346FB716B
:103D9000FFF733FA0346002B04D0FB79002B01D048
:103DA000012300E00023002B01D0FB79F1E16348FF
:103DB00004F03CFF0346FB71FFF71FFA0346002B9C
:103DC00004D0FB79002B01D0012300E00023002B5D
:103DD00001D0FB79DDE15A4804F038FF0346FB715E
:103DE000FFF70BFA0346002B04D0FB79002B01D020
:103DF000012300E00023002B01D0FB79C9E15148E9
:103E000004F034FF0346FB71FFF7F7F90346002B7C
:103E100004D0FB79002B01D0012300E00023002B0C
:103E200001D0FB79B5E1484804F030FF0346FB714F
:103E3000FFF7E3F90346002B04D0FB79002B01D0F8
:103E4000012300E00023002B01D0FB79A1E13F48D2
:103E500004F02CFF0346FB71FFF7CFF90346002B5C
:103E600004D0FB79002B01D0012300E00023002BBC
:103E700001D0FB798DE1364804F028FF0346FB7141
:103E8000FFF7BBF90346002B04D0FB79002B01D0D0
:103E9000012300E00023002B01D0FB7979E12D48BC
:103EA00004F024FF0346FB71FFF7A7F90346002B3C
:103EB00004D0FB79002B01D0012300E00023002B6C
:103EC00001D0FB7965E1244804F020FF0346FB7133
:103ED000FFF793F90346002B04D0FB79002B01D0A8
:103EE000012300E00023002B01D0FB7951E11B48A6
:103EF00004F01CFF0346FB71FFF77FF90346002B1C
:103F000004D0FB79002B01D0012300E00023002B1B
:103F100026D0FB793DE100BFA8470020C047002024
:103F2000C4470020B0470020B447002068040020A8
:103F3000E44800203C480020444800205448002029
:103F4000540000209448002074000020984800206D
:103F5000F84700209C48002014000020E84700207B
:103F60008E4804F0F3FE0346FB71FFF746F9034663
:103F7000002B04D0FB79002B01D0012300E00023AB
:103F8000002B01D0FB7904E1854804F0EFFE0346E5
:103F9000FB71FFF732F90346002B04D0FB79002BAD
:103FA00001D0012300E00023002B01D0FB79F0E0D9
:103FB0007C4804F0EBFE0346FB71FFF71EF9034655
:103FC000002B04D0FB79002B01D0012300E000235B
:103FD000002B01D0FB79DCE0734804F0E7FE0346D8
:103FE000FB71FFF70AF90346002B04D0FB79002B85
:103FF00001D0012300E00023002B01D0FB79C8E0B1
:104000006A4804F0E3FE0346FB71FFF7F6F8034647
:10401000002B04D0FB79002B01D0012300E000230A
:10402000002B01D0FB79B4E0614804F0DFFE0346C9
:10403000FB71FFF7E2F80346002B04D0FB79002B5D
:1040400001D0012300E00023002B01D0FB79A0E088
:10405000584804F0DBFE0346FB71FFF7CEF8034639
:10406000002B04D0FB79002B01D0012300E00023BA
:10407000002B01D0FB798CE04F4804F0D7FE0346BB
:10408000FB71FFF7BAF80346002B04D0FB79002B35
:1040900001D0012300E00023002B01D0FB7978E060
:1040A000464804F0D3FE0346FB71FFF7A6F803462B
:1040B000002B04D0FB79002B01D0012300E000236A
:1040C000002B01D0FB7964E03D4804F0CFFE0346AD
:1040D000FB71FFF792F80346002B04D0FB79002B0D
:1040E00001D0012300E00023002B01D0FB7950E038
:1040F000344804F0CBFE0346FB71FFF77EF803461D
:10410000002B04D0FB79002B01D0012300E0002319
:10411000002B01D0FB793CE02B4804F0C7FE03469E
:10412000FB71FFF76AF80346002B04D0FB79002BE4
:1041300001D0012300E00023002B01D0FB7928E00F
:10414000224804F0C3FE0346FB71FFF756F803460E
:10415000002B04D0FB79002B01D0012300E00023C9
:10416000002B01D0FB7914E0194804F0BFFE034690
:10417000FB71FFF742F80346002B04D0FB79002BBC
:1041800001D0012300E00023002B01D0FB7900E0E7
:10419000FB7918460837BD4680BD00BF500000209F
:1041A000F448002010480020240500203405002099
:1041B000400000203400002020480020440000205F
:1041C0004C4800203048002034480020504800204F
:1041D0004848002080B582B000AFB44804F096FE95
:1041E0000346FB71FFF717F80346002B04D0FB7959
:1041F000002B01D0012300E00023002B01D0FB792C
:1042000091E2AB4804F092FE0346FB71FFF703F81E
:104210000346002B04D0FB79002B01D0012300E0E2
:104220000023002B01D0FB797DE2A24804F08EFE32
:104230000346FB71FEF7EFFF0346002B04D0FB792A
:10424000002B01D0012300E00023002B01D0FB79DB
:1042500069E2994804F08AFE0346FB71FEF7DBFF32
:104260000346002B04D0FB79002B01D0012300E092
:104270000023002B01D0FB7955E2904804F086FE24
:104280000346FB71FEF7C7FF0346002B04D0FB7902
:10429000002B01D0012300E00023002B01D0FB798B
:1042A00041E2874804F082FE0346FB71FEF7B3FF4C
:1042B0000346002B04D0FB79002B01D0012300E042
:1042C0000023002B01D0FB792DE27E4804F07EFE16
:1042D0000346FB71FEF79FFF0346002B04D0FB79DA
:1042E000002B01D0012300E00023002B01D0FB793B
:1042F00019E2754804F07AFE0346FB71FEF78BFF66
:104300000346002B04D0FB79002B01D0012300E0F1
:104310000023002B01D0FB7905E26C4804F076FE07
:104320000346FB71FEF777FF0346002B04D0FB79B1
:10433000002B01D0012300E00023002B01D0FB79EA
:10434000F1E1634804F072FE0346FB71FEF763FF80
:104350000346002B04D0FB79002B01D0012300E0A1
:104360000023002B01D0FB79DDE15A4804F06EFEFA
:104370000346FB71FEF74FFF0346002B04D0FB7989
:10438000002B01D0012300E00023002B01D0FB799A
:10439000C9E1514804F06AFE0346FB71FEF73BFF9A
:1043A0000346002B04D0FB79002B01D0012300E051
:1043B0000023002B01D0FB79B5E1484804F066FEEC
:1043C0000346FB71FEF727FF0346002B04D0FB7961
:1043D000002B01D0012300E00023002B01D0FB794A
:1043E000A1E13F4804F062FE0346FB71FEF713FFB4
:1043F0000346002B04D0FB79002B01D0012300E001
:104400000023002B01D0FB798DE1364804F05EFEDD
:104410000346FB71FEF7FFFE0346002B04D0FB7939
:10442000002B01D0012300E00023002B01D0FB79F9
:1044300079E12D4804F05AFE0346FB71FEF7EBFECE
:104440000346002B04D0FB79002B01D0012300E0B0
:104450000023002B01D0FB7965E1244804F056FECF
:104460000346FB71FEF7D7FE0346002B04D0FB7911
:10447000002B01D0012300E00023002B01D0FB79A9
:1044800051E11B4804F052FE0346FB71FEF7C3FEE8
:104490000346002B04D0FB79002B01D0012300E060
:1044A0000023002B26D0FB793DE100BFA847002068
:1044B000C0470020C4470020B0470020B447002078
:1044C00068040020E44800203C48002044480020C4
:1044D000544800205400002094480020740000201C
:1044E00098480020F84700209C4800201400002035
:1044F000E84700208E4804F029FE0346FB71FEF7D2
:104500008AFE0346002B04D0FB79002B01D0012347
:1045100000E00023002B01D0FB7904E1854804F082
:1045200025FE0346FB71FEF776FE0346002B04D002
:10453000FB79002B01D0012300E00023002B01D0E8
:10454000FB79F0E07C4804F021FE0346FB71FEF7A6
:1045500062FE0346002B04D0FB79002B01D001231F
:1045600000E00023002B01D0FB79DCE0734804F06D
:104570001DFE0346FB71FEF74EFE0346002B04D0E2
:10458000FB79002B01D0012300E00023002B01D098
:10459000FB79C8E06A4804F019FE0346FB71FEF798
:1045A0003AFE0346002B04D0FB79002B01D00123F7
:1045B00000E00023002B01D0FB79B4E0614804F057
:1045C00015FE0346FB71FEF726FE0346002B04D0C2
:1045D000FB79002B01D0012300E00023002B01D048
:1045E000FB79A0E0584804F011FE0346FB71FEF78A
:1045F00012FE0346002B04D0FB79002B01D00123CF
:1046000000E00023002B01D0FB798CE04F4804F040
:104610000DFE0346FB71FEF7FEFD0346002B04D0A2
:10462000FB79002B01D0012300E00023002B01D0F7
:10463000FB7978E0464804F009FE0346FB71FEF77B
:10464000EAFD0346002B04D0FB79002B01D00123A7
:1046500000E00023002B01D0FB7964E03D4804F02A
:1046600005FE0346FB71FEF7D6FD0346002B04D082
:10467000FB79002B01D0012300E00023002B01D0A7
:10468000FB7950E0344804F001FE0346FB71FEF76D
:10469000C2FD0346002B04D0FB79002B01D001237F
:1046A00000E00023002B01D0FB793CE02B4804F014
:1046B000FDFD0346FB71FEF7AEFD0346002B04D063
:1046C000FB79002B01D0012300E00023002B01D057
:1046D000FB7928E0224804F0F9FD0346FB71FEF760
:1046E0009AFD0346002B04D0FB79002B01D0012357
:1046F00000E00023002B01D0FB7914E0194804F0FE
:10470000F5FD0346FB71FEF786FD0346002B04D042
:10471000FB79002B01D0012300E00023002B01D006
:10472000FB7900E0FB7918460837BD4680BD00BF25
:1047300050000020F44800201048002024050020EC
:1047400034050020400000203400002020480020D4
:10475000440000204C48002030480020344800200D
:10476000504800204848002080B584B000AF7860F1
:104770007968B24804F0CAFD0346FB73FEF759FDA1
:104780000346002B04D0FB7B002B01D0012300E06B
:104790000023002B01D0FB7BAEE27968A84804F02F
:1047A000C7FD0346FB73FEF744FD0346002B04D010
:1047B000FB7B002B01D0012300E00023002B01D064
:1047C000FB7B99E279689F4804F0C4FD0346FB73C4
:1047D000FEF72FFD0346002B04D0FB7B002B01D0FE
:1047E000012300E00023002B01D0FB7B84E27968E9
:1047F000954804F0C1FD0346FB73FEF71AFD03461E
:10480000002B04D0FB7B002B01D0012300E0002310
:10481000002B01D0FB7B6FE279688C4804F0BEFD71
:104820000346FB73FEF705FD0346002B04D0FB7B1C
:10483000002B01D0012300E00023002B01D0FB7BE3
:104840005AE27968824804F0BBFD0346FB73FEF729
:10485000F0FC0346002B04D0FB7B002B01D001238E
:1048600000E00023002B01D0FB7B45E2796879480A
:1048700004F0B8FD0346FB73FEF7DBFC0346002B98
:1048800004D0FB7B002B01D0012300E00023002B90
:1048900001D0FB7B30E279686F4804F0B5FD034638
:1048A000FB73FEF7C6FC0346002B04D0FB7B002BFA
:1048B00001D0012300E00023002B01D0FB7B1BE291
:1048C0007968664804F0B2FD0346FB73FEF7B1FC5D
:1048D0000346002B04D0FB7B002B01D0012300E01A
:1048E0000023002B01D0FB7B06E279685C4804F0D2
:1048F000AFFD0346FB73FEF79CFC0346002B04D080
:10490000FB7B002B01D0012300E00023002B01D012
:10491000FB7BF1E17968534804F0ACFD0346FB737F
:10492000FEF787FC0346002B04D0FB7B002B01D055
:10493000012300E00023002B01D0FB7BDCE1796840
:10494000494804F0A9FD0346FB73FEF772FC0346D9
:10495000002B04D0FB7B002B01D0012300E00023BF
:10496000002B01D0FB7BC7E17968404804F0A6FD2D
:104970000346FB73FEF75DFC0346002B04D0FB7B74
:10498000002B01D0012300E00023002B01D0FB7B92
:10499000B2E17968364804F0A3FD0346FB73FEF7E5
:1049A00048FC0346002B04D0FB7B002B01D00123E5
:1049B00000E00023002B01D0FB7B9DE179682D48AE
:1049C00004F0A0FD0346FB73FEF733FC0346002B07
:1049D00004D0FB7B002B01D0012300E00023002B3F
:1049E00001D0FB7B88E17968234804F09DFD0346F4
:1049F000FB73FEF71EFC0346002B04D0FB7B002B51
:104A000001D0012300E00023002B01D0FB7B73E1E8
:104A100079681A4804F09AFD0346FB73FEF709FC17
:104A20000346002B04D0FB7B002B01D0012300E0C8
:104A30000023002B24D0FB7B5EE100BFA8470020B1
:104A4000C0470020C4470020B0470020B4470020E2
:104A500068040020E44800203C480020444800202E
:104A60005448002054000020944800207400002086
:104A700098480020F84700209C480020140000209F
:104A800079689F4804F074FD0346FB73FEF7D1FB81
:104A90000346002B04D0FB7B002B01D0012300E058
:104AA0000023002B01D0FB7B26E17968954804F0B8
:104AB00071FD0346FB73FEF7BCFB0346002B04D0DD
:104AC000FB7B002B01D0012300E00023002B01D051
:104AD000FB7B11E179688C4804F06EFD0346FB73A3
:104AE000FEF7A7FB0346002B04D0FB7B002B01D075
:104AF000012300E00023002B01D0FB7BFCE0796860
:104B0000824804F06BFD0346FB73FEF792FB0346FD
:104B1000002B04D0FB7B002B01D0012300E00023FD
:104B2000002B01D0FB7BE7E07968794804F068FD51
:104B30000346FB73FEF77DFB0346002B04D0FB7B93
:104B4000002B01D0012300E00023002B01D0FB7BD0
:104B5000D2E079686F4804F065FD0346FB73FEF709
:104B600068FB0346002B04D0FB7B002B01D0012304
:104B700000E00023002B01D0FB7BBDE07968664894
:104B800004F062FD0346FB73FEF753FB0346002B64
:104B900004D0FB7B002B01D0012300E00023002B7D
:104BA00001D0FB7BA8E079685C4804F05FFD034618
:104BB000FB73FEF73EFB0346002B04D0FB7B002B70
:104BC00001D0012300E00023002B01D0FB7B93E008
:104BD0007968534804F05CFD0346FB73FEF729FB3C
:104BE0000346002B04D0FB7B002B01D0012300E007
:104BF0000023002B01D0FB7B7EE07968494804F05C
:104C000059FD0346FB73FEF714FB0346002B04D04B
:104C1000FB7B002B01D0012300E00023002B01D0FF
:104C2000FB7B69E07968404804F056FD0346FB735E
:104C3000FEF7FFFA0346002B04D0FB7B002B01D0CC
:104C4000012300E00023002B01D0FB7B54E07968B6
:104C5000364804F053FD0346FB73FEF7EAFA0346B9
:104C6000002B04D0FB7B002B01D0012300E00023AC
:104C7000002B01D0FB7B3FE079682D4804F050FD0C
:104C80000346FB73FEF7D5FA0346002B04D0FB7BEB
:104C9000002B01D0012300E00023002B01D0FB7B7F
:104CA0002AE07968234804F04DFD0346FB73FEF7C4
:104CB000C0FA0346002B04D0FB7B002B01D001235C
:104CC00000E00023002B01D0FB7B15E079681A4837
:104CD00004F04AFD0346FB73FEF7ABFA0346002BD4
:104CE00004D0FB7B002B01D0012300E00023002B2C
:104CF00001D0FB7B00E0FB7B18461037BD4680BD32
:104D0000E847002050000020F44800201048002010
:104D1000240500203405002040000020340000203D
:104D200020480020440000204C480020304800204B
:104D300034480020504800204848002080B584B006
:104D400000AF78607968B24804F020FD0346FB7339
:104D5000FEF782FA0346002B04D0FB7B002B01D028
:104D6000012300E00023002B01D0FB7BAEE2796839
:104D7000A84804F01DFD0346FB73FEF76DFA0346D9
:104D8000002B04D0FB7B002B01D0012300E000238B
:104D9000002B01D0FB7B99E279689F4804F01AFD53
:104DA0000346FB73FEF758FA0346002B04D0FB7B47
:104DB000002B01D0012300E00023002B01D0FB7B5E
:104DC00084E27968954804F017FD0346FB73FEF70B
:104DD00043FA0346002B04D0FB7B002B01D00123B8
:104DE00000E00023002B01D0FB7B6FE279688C4848
:104DF00004F014FD0346FB73FEF72EFA0346002B66
:104E000004D0FB7B002B01D0012300E00023002B0A
:104E100001D0FB7B5AE27968824804F011FD034619
:104E2000FB73FEF719FA0346002B04D0FB7B002B23
:104E300001D0012300E00023002B01D0FB7B45E2E1
:104E40007968794804F00EFD0346FB73FEF704FA17
:104E50000346002B04D0FB7B002B01D0012300E094
:104E60000023002B01D0FB7B30E279686F4804F00F
:104E70000BFD0346FB73FEF7EFF90346002B04D04E
:104E8000FB7B002B01D0012300E00023002B01D08D
:104E9000FB7B1BE27968664804F008FD0346FB7360
:104EA000FEF7DAF90346002B04D0FB7B002B01D080
:104EB000012300E00023002B01D0FB7B06E2796890
:104EC0005C4804F005FD0346FB73FEF7C5F9034695
:104ED000002B04D0FB7B002B01D0012300E000233A
:104EE000002B01D0FB7BF1E17968534804F002FD0F
:104EF0000346FB73FEF7B0F90346002B04D0FB7B9F
:104F0000002B01D0012300E00023002B01D0FB7B0C
:104F1000DCE17968494804F0FFFC0346FB73FEF7C7
:104F20009BF90346002B04D0FB7B002B01D001230F
:104F300000E00023002B01D0FB7BC7E179684048EB
:104F400004F0FCFC0346FB73FEF786F90346002BD6
:104F500004D0FB7B002B01D0012300E00023002BB9
:104F600001D0FB7BB2E17968364804F0F9FC0346D6
:104F7000FB73FEF771F90346002B04D0FB7B002B7B
:104F800001D0012300E00023002B01D0FB7B9DE139
:104F900079682D4804F0F6FC0346FB73FEF75CF9D4
:104FA0000346002B04D0FB7B002B01D0012300E043
:104FB0000023002B01D0FB7B88E17968234804F0B3
:104FC000F3FC0346FB73FEF747F90346002B04D0BE
:104FD000FB7B002B01D0012300E00023002B01D03C
:104FE000FB7B73E179681A4804F0F0FC0346FB731D
:104FF000FEF732F90346002B04D0FB7B002B01D0D7
:10500000012300E00023002B24D0FB7B5EE100BFE6
:10501000A8470020C0470020C4470020B047002018
:10502000B447002068040020E44800203C480020E9
:105030004448002054480020540000209448002098
:105040007400002098480020F84700209C48002069
:105050001400002079689F4804F0CAFC0346FB73E3
:10506000FEF7FAF80346002B04D0FB7B002B01D09F
:10507000012300E00023002B01D0FB7B26E17968AF
:10508000954804F0C7FC0346FB73FEF7E5F80346BA
:10509000002B04D0FB7B002B01D0012300E0002378
:1050A000002B01D0FB7B11E179688C4804F0C4FC33
:1050B0000346FB73FEF7D0F80346002B04D0FB7BBE
:1050C000002B01D0012300E00023002B01D0FB7B4B
:1050D000FCE07968824804F0C1FC0346FB73FEF7EC
:1050E000BBF80346002B04D0FB7B002B01D001232F
:1050F00000E00023002B01D0FB7BE7E079687948D2
:1051000004F0BEFC0346FB73FEF7A6F80346002B33
:1051100004D0FB7B002B01D0012300E00023002BF7
:1051200001D0FB7BD2E079686F4804F0BBFC0346FA
:10513000FB73FEF791F80346002B04D0FB7B002B9A
:1051400001D0012300E00023002B01D0FB7BBDE058
:105150007968664804F0B8FC0346FB73FEF77CF8F8
:105160000346002B04D0FB7B002B01D0012300E081
:105170000023002B01D0FB7BA8E079685C4804F099
:10518000B5FC0346FB73FEF767F80346002B04D01B
:10519000FB7B002B01D0012300E00023002B01D07A
:1051A000FB7B93E07968534804F0B2FC0346FB7341
:1051B000FEF752F80346002B04D0FB7B002B01D0F6
:1051C000012300E00023002B01D0FB7B7EE0796807
:1051D000494804F0AFFC0346FB73FEF73DF8034675
:1051E000002B04D0FB7B002B01D0012300E0002327
:1051F000002B01D0FB7B69E07968404804F0ACFCEF
:105200000346FB73FEF728F80346002B04D0FB7B14
:10521000002B01D0012300E00023002B01D0FB7BF9
:1052200054E07968364804F0A9FC0346FB73FEF7A6
:1052300013F80346002B04D0FB7B002B01D0012385
:1052400000E00023002B01D0FB7B3FE079682D4874
:1052500004F0A6FC0346FB73FDF7FEFF0346002B9C
:1052600004D0FB7B002B01D0012300E00023002BA6
:1052700001D0FB7B2AE07968234804F0A3FC0346B5
:10528000FB73FDF7E9FF0346002B04D0FB7B002BEB
:1052900001D0012300E00023002B01D0FB7B15E0AF
:1052A00079681A4804F0A0FC0346FB73FDF7D4FFAD
:1052B0000346002B04D0FB7B002B01D0012300E030
:1052C0000023002B01D0FB7B00E0FB7B184610374E
:1052D000BD4680BDE847002050000020F448002073
:1052E0001048002024050020340500204000002044
:1052F0003400002020480020440000204C480020BA
:105300003048002034480020504800204848002001
:1053100080B584B000AF78607968B24804F076FC5C
:105320000346FB73FDF7ABFF0346002B04D0FB7B6A
:10533000002B01D0012300E00023002B01D0FB7BD8
:10534000AEE27968A84804F073FC0346FB73FDF7EE
:1053500096FF0346002B04D0FB7B002B01D00123DA
:1053600000E00023002B01D0FB7B99E279689F4885
:1053700004F070FC0346FB73FDF781FF0346002B2E
:1053800004D0FB7B002B01D0012300E00023002B85
:1053900001D0FB7B84E27968954804F06DFC0346FC
:1053A000FB73FDF76CFF0346002B04D0FB7B002B47
:1053B00001D0012300E00023002B01D0FB7B6FE232
:1053C00079688C4804F06AFC0346FB73FDF757FFCD
:1053D0000346002B04D0FB7B002B01D0012300E00F
:1053E0000023002B01D0FB7B5AE27968824804F04D
:1053F00067FC0346FB73FDF742FF0346002B04D016
:10540000FB7B002B01D0012300E00023002B01D007
:10541000FB7B45E27968794804F064FC0346FB7342
:10542000FDF72DFF0346002B04D0FB7B002B01D0A2
:10543000012300E00023002B01D0FB7B30E27968E0
:105440006F4804F061FC0346FB73FDF718FF034649
:10545000002B04D0FB7B002B01D0012300E00023B4
:10546000002B01D0FB7B1BE27968664804F05EFCF0
:105470000346FB73FDF703FF0346002B04D0FB7BC1
:10548000002B01D0012300E00023002B01D0FB7B87
:1054900006E279685C4804F05BFC0346FB73FDF7A9
:1054A000EEFE0346002B04D0FB7B002B01D0012332
:1054B00000E00023002B01D0FB7BF1E17968534829
:1054C00004F058FC0346FB73FDF7D9FE0346002B9E
:1054D00004D0FB7B002B01D0012300E00023002B34
:1054E00001D0FB7BDCE17968494804F055FC0346B8
:1054F000FB73FDF7C4FE0346002B04D0FB7B002B9F
:1055000001D0012300E00023002B01D0FB7BC7E189
:105510007968404804F052FC0346FB73FDF7AFFE88
:105520000346002B04D0FB7B002B01D0012300E0BD
:105530000023002B01D0FB7BB2E17968364804F0F0
:105540004FFC0346FB73FDF79AFE0346002B04D085
:10555000FB7B002B01D0012300E00023002B01D0B6
:10556000FB7B9DE179682D4804F04CFC0346FB73FE
:10557000FDF785FE0346002B04D0FB7B002B01D0FA
:10558000012300E00023002B01D0FB7B88E1796838
:10559000234804F049FC0346FB73FDF770FE034605
:1055A000002B04D0FB7B002B01D0012300E0002363
:1055B000002B01D0FB7B73E179681A4804F046FCAC
:1055C0000346FB73FDF75BFE0346002B04D0FB7B19
:1055D000002B01D0012300E00023002B24D0FB7B13
:1055E0005EE100BFA8470020C0470020C44700205C
:1055F000B0470020B447002068040020E4480020A1
:105600003C4800204448002054480020540000201A
:10561000944800207400002098480020F84700209B
:105620009C4800201400002079689F4804F020FC6A
:105630000346FB73FDF723FE0346002B04D0FB7BE0
:10564000002B01D0012300E00023002B01D0FB7BC5
:1056500026E17968954804F01DFC0346FB73FDF7CD
:105660000EFE0346002B04D0FB7B002B01D0012350
:1056700000E00023002B01D0FB7B11E179688C480E
:1056800004F01AFC0346FB73FDF7F9FD0346002BFB
:1056900004D0FB7B002B01D0012300E00023002B72
:1056A00001D0FB7BFCE07968824804F017FC0346DC
:1056B000FB73FDF7E4FD0346002B04D0FB7B002BBE
:1056C00001D0012300E00023002B01D0FB7BE7E0A9
:1056D0007968794804F014FC0346FB73FDF7CFFDAD
:1056E0000346002B04D0FB7B002B01D0012300E0FC
:1056F0000023002B01D0FB7BD2E079686F4804F0D7
:1057000011FC0346FB73FDF7BAFD0346002B04D0E2
:10571000FB7B002B01D0012300E00023002B01D0F4
:10572000FB7BBDE07968664804F00EFC0346FB7322
:10573000FDF7A5FD0346002B04D0FB7B002B01D019
:10574000012300E00023002B01D0FB7BA8E0796857
:105750005C4804F00BFC0346FB73FDF790FD034629
:10576000002B04D0FB7B002B01D0012300E00023A1
:10577000002B01D0FB7B93E07968534804F008FCD0
:105780000346FB73FDF77BFD0346002B04D0FB7B38
:10579000002B01D0012300E00023002B01D0FB7B74
:1057A0007EE07968494804F005FC0346FB73FDF789
:1057B00066FD0346002B04D0FB7B002B01D00123A8
:1057C00000E00023002B01D0FB7B69E079684048B2
:1057D00004F002FC0346FB73FDF751FD0346002B6A
:1057E00004D0FB7B002B01D0012300E00023002B21
:1057F00001D0FB7B54E07968364804F0FFFB034698
:10580000FB73FDF73CFD0346002B04D0FB7B002B14
:1058100001D0012300E00023002B01D0FB7B3FE0FF
:1058200079682D4804F0FCFB0346FB73FDF727FD68
:105830000346002B04D0FB7B002B01D0012300E0AA
:105840000023002B01D0FB7B2AE07968234804F079
:10585000F9FB0346FB73FDF712FD0346002B04D052
:10586000FB7B002B01D0012300E00023002B01D0A3
:10587000FB7B15E079681A4804F0F6FB0346FB73DE
:10588000FDF7FDFC0346002B04D0FB7B002B01D071
:10589000012300E00023002B01D0FB7B00E0FB7B19
:1058A00018461037BD4680BDE84700205000002054
:1058B000F448002010480020240500203405002072
:1058C0004000002034000020204800204400002038
:1058D0004C48002030480020344800205048002028
:1058E0004848002080B584B000AF78607968B2483D
:1058F00004F0CCFB0346FB73FDF7D5FC0346002BFD
:1059000004D0FB7B002B01D0012300E00023002BFF
:1059100001D0FB7BAEE27968A84804F0C9FB0346DE
:10592000FB73FDF7C0FC0346002B04D0FB7B002B70
:1059300001D0012300E00023002B01D0FB7B99E282
:1059400079689F4804F0C6FB0346FB73FDF7ABFC88
:105950000346002B04D0FB7B002B01D0012300E089
:105960000023002B01D0FB7B84E27968954804F08A
:10597000C3FB0346FB73FDF796FC0346002B04D0E4
:10598000FB7B002B01D0012300E00023002B01D082
:10599000FB7B6FE279688C4804F0C0FB0346FB7325
:1059A000FDF781FC0346002B04D0FB7B002B01D0CC
:1059B000012300E00023002B01D0FB7B5AE2796831
:1059C000824804F0BDFB0346FB73FDF76CFC034605
:1059D000002B04D0FB7B002B01D0012300E000232F
:1059E000002B01D0FB7B45E27968794804F0BAFBD3
:1059F0000346FB73FDF757FC0346002B04D0FB7BEB
:105A0000002B01D0012300E00023002B01D0FB7B01
:105A100030E279686F4804F0B7FB0346FB73FDF78B
:105A200042FC0346002B04D0FB7B002B01D001235A
:105A300000E00023002B01D0FB7B1BE27968664865
:105A400004F0B4FB0346FB73FDF72DFC0346002B6B
:105A500004D0FB7B002B01D0012300E00023002BAE
:105A600001D0FB7B06E279685C4804F0B1FB034699
:105A7000FB73FDF718FC0346002B04D0FB7B002BC7
:105A800001D0012300E00023002B01D0FB7BF1E1DA
:105A90007968534804F0AEFB0346FB73FDF703FC43
:105AA0000346002B04D0FB7B002B01D0012300E038
:105AB0000023002B01D0FB7BDCE17968494804F02E
:105AC000ABFB0346FB73FDF7EEFB0346002B04D054
:105AD000FB7B002B01D0012300E00023002B01D031
:105AE000FB7BC7E17968404804F0A8FB0346FB73E1
:105AF000FDF7D9FB0346002B04D0FB7B002B01D024
:105B0000012300E00023002B01D0FB7BB2E1796888
:105B1000364804F0A5FB0346FB73FDF7C4FB0346C0
:105B2000002B04D0FB7B002B01D0012300E00023DD
:105B3000002B01D0FB7B9DE179682D4804F0A2FB8E
:105B40000346FB73FDF7AFFB0346002B04D0FB7B42
:105B5000002B01D0012300E00023002B01D0FB7BB0
:105B600088E17968234804F09FFB0346FB73FDF747
:105B70009AFB0346002B04D0FB7B002B01D00123B2
:105B800000E00023002B01D0FB7B73E179681A4809
:105B900004F09CFB0346FB73FDF785FB0346002BDB
:105BA00004D0FB7B002B01D0012300E00023002B5D
:105BB00024D0FB7B5EE100BFA8470020C047002047
:105BC000C4470020B0470020B447002068040020EC
:105BD000E44800203C48002044480020544800206D
:105BE00054000020944800207400002098480020B1
:105BF000F84700209C4800201400002079689F4846
:105C000004F076FB0346FB73FDF74DFB0346002BC8
:105C100004D0FB7B002B01D0012300E00023002BEC
:105C200001D0FB7B26E17968954804F073FB0346BD
:105C3000FB73FDF738FB0346002B04D0FB7B002BE6
:105C400001D0012300E00023002B01D0FB7B11E1F8
:105C500079688C4804F070FB0346FB73FDF723FB67
:105C60000346002B04D0FB7B002B01D0012300E076
:105C70000023002B01D0FB7BFCE07968824804F014
:105C80006DFB0346FB73FDF70EFB0346002B04D0B0
:105C9000FB7B002B01D0012300E00023002B01D06F
:105CA000FB7BE7E07968794804F06AFB0346FB7305
:105CB000FDF7F9FA0346002B04D0FB7B002B01D043
:105CC000012300E00023002B01D0FB7BD2E07968A8
:105CD0006F4804F067FB0346FB73FDF7E4FA0346E5
:105CE000002B04D0FB7B002B01D0012300E000231C
:105CF000002B01D0FB7BBDE07968664804F064FBB3
:105D00000346FB73FDF7CFFA0346002B04D0FB7B61
:105D1000002B01D0012300E00023002B01D0FB7BEE
:105D2000A8E079685C4804F061FB0346FB73FDF76B
:105D3000BAFA0346002B04D0FB7B002B01D00123D1
:105D400000E00023002B01D0FB7B93E079685348EF
:105D500004F05EFB0346FB73FDF7A5FA0346002B38
:105D600004D0FB7B002B01D0012300E00023002B9B
:105D700001D0FB7B7EE07968494804F05BFB034679
:105D8000FB73FDF790FA0346002B04D0FB7B002B3E
:105D900001D0012300E00023002B01D0FB7B69E050
:105DA0007968404804F058FB0346FB73FDF77BFA23
:105DB0000346002B04D0FB7B002B01D0012300E025
:105DC0000023002B01D0FB7B54E07968364804F0B7
:105DD00055FB0346FB73FDF766FA0346002B04D020
:105DE000FB7B002B01D0012300E00023002B01D01E
:105DF000FB7B3FE079682D4804F052FB0346FB73C0
:105E0000FDF751FA0346002B04D0FB7B002B01D099
:105E1000012300E00023002B01D0FB7B2AE07968FE
:105E2000234804F04FFB0346FB73FDF73CFA03469F
:105E3000002B04D0FB7B002B01D0012300E00023CA
:105E4000002B01D0FB7B15E079681A4804F04CFB6D
:105E50000346FB73FDF727FA0346002B04D0FB7BB8
:105E6000002B01D0012300E00023002B01D0FB7B9D
:105E700000E0FB7B18461037BD4680BDE847002098
:105E800050000020F4480020104800202405002085
:105E9000340500204000002034000020204800206D
:105EA000440000204C4800203048002034480020A6
:105EB000504800204848002080B582B000AFB44868
:105EC00004F024FB0346FB71FDF701FA0346002BA7
:105ED00004D0FB79002B01D0012300E00023002B2C
:105EE00001D0FB7991E2AB4804F020FB0346FB7143
:105EF000FDF7EDF90346002B04D0FB79002B01D010
:105F0000012300E00023002B01D0FB797DE2A248B1
:105F100004F01CFB0346FB71FDF7D9F90346002B87
:105F200004D0FB79002B01D0012300E00023002BDB
:105F300001D0FB7969E2994804F018FB0346FB7134
:105F4000FDF7C5F90346002B04D0FB79002B01D0E7
:105F5000012300E00023002B01D0FB7955E290489B
:105F600004F014FB0346FB71FDF7B1F90346002B67
:105F700004D0FB79002B01D0012300E00023002B8B
:105F800001D0FB7941E2874804F010FB0346FB7126
:105F9000FDF79DF90346002B04D0FB79002B01D0BF
:105FA000012300E00023002B01D0FB792DE27E4885
:105FB00004F00CFB0346FB71FDF789F90346002B47
:105FC00004D0FB79002B01D0012300E00023002B3B
:105FD00001D0FB7919E2754804F008FB0346FB7118
:105FE000FDF775F90346002B04D0FB79002B01D097
:105FF000012300E00023002B01D0FB7905E26C486F
:1060000004F004FB0346FB71FDF761F90346002B26
:1060100004D0FB79002B01D0012300E00023002BEA
:1060200001D0FB79F1E1634804F000FB0346FB710A
:10603000FDF74DF90346002B04D0FB79002B01D06E
:10604000012300E00023002B01D0FB79DDE15A4859
:1060500004F0FCFA0346FB71FDF739F90346002B07
:1060600004D0FB79002B01D0012300E00023002B9A
:1060700001D0FB79C9E1514804F0F8FA0346FB71FD
:10608000FDF725F90346002B04D0FB79002B01D046
:10609000012300E00023002B01D0FB79B5E1484843
:1060A00004F0F4FA0346FB71FDF711F90346002BE7
:1060B00004D0FB79002B01D0012300E00023002B4A
:1060C00001D0FB79A1E13F4804F0F0FA0346FB71EF
:1060D000FDF7FDF80346002B04D0FB79002B01D01F
:1060E000012300E00023002B01D0FB798DE136482D
:1060F00004F0ECFA0346FB71FDF7E9F80346002BC8
:1061000004D0FB79002B01D0012300E00023002BF9
:1061100001D0FB7979E12D4804F0E8FA0346FB71E0
:10612000FDF7D5F80346002B04D0FB79002B01D0F6
:10613000012300E00023002B01D0FB7965E1244816
:1061400004F0E4FA0346FB71FDF7C1F80346002BA7
:1061500004D0FB79002B01D0012300E00023002BA9
:1061600001D0FB7951E11B4804F0E0FA0346FB71D2
:10617000FDF7ADF80346002B04D0FB79002B01D0CE
:10618000012300E00023002B26D0FB793DE100BF76
:10619000A8470020C0470020C4470020B047002087
:1061A000B447002068040020E44800203C48002058
:1061B0004448002054480020540000209448002007
:1061C0007400002098480020F84700209C480020D8
:1061D00014000020E84700208E4804F0B7FA034678
:1061E000FB71FDF774F80346002B04D0FB79002BFC
:1061F00001D0012300E00023002B01D0FB7904E152
:10620000854804F0B3FA0346FB71FDF760F80346D6
:10621000002B04D0FB79002B01D0012300E00023E8
:10622000002B01D0FB79F0E07C4804F0AFFA034684
:10623000FB71FDF74CF80346002B04D0FB79002BD3
:1062400001D0012300E00023002B01D0FB79DCE02A
:10625000734804F0ABFA0346FB71FDF738F80346C8
:10626000002B04D0FB79002B01D0012300E0002398
:10627000002B01D0FB79C8E06A4804F0A7FA034676
:10628000FB71FDF724F80346002B04D0FB79002BAB
:1062900001D0012300E00023002B01D0FB79B4E002
:1062A000614804F0A3FA0346FB71FDF710F80346BA
:1062B000002B04D0FB79002B01D0012300E0002348
:1062C000002B01D0FB79A0E0584804F09FFA034668
:1062D000FB71FCF7FCFF0346002B04D0FB79002B7D
:1062E00001D0012300E00023002B01D0FB798CE0DA
:1062F0004F4804F09BFA0346FB71FCF7E8FF0346A6
:10630000002B04D0FB79002B01D0012300E00023F7
:10631000002B01D0FB7978E0464804F097FA034659
:10632000FB71FCF7D4FF0346002B04D0FB79002B54
:1063300001D0012300E00023002B01D0FB7964E0B1
:106340003D4804F093FA0346FB71FCF7C0FF034697
:10635000002B04D0FB79002B01D0012300E00023A7
:10636000002B01D0FB7950E0344804F08FFA03464B
:10637000FB71FCF7ACFF0346002B04D0FB79002B2C
:1063800001D0012300E00023002B01D0FB793CE089
:106390002B4804F08BFA0346FB71FCF798FF034689
:1063A000002B04D0FB79002B01D0012300E0002357
:1063B000002B01D0FB7928E0224804F087FA03463D
:1063C000FB71FCF784FF0346002B04D0FB79002B04
:1063D00001D0012300E00023002B01D0FB7914E061
:1063E000194804F083FA0346FB71FCF770FF03467B
:1063F000002B04D0FB79002B01D0012300E0002307
:10640000002B01D0FB7900E0FB7918460837BD4628
:1064100080BD00BF50000020F4480020104800203C
:106420002405002034050020400000203400002016
:1064300020480020440000204C4800203048002024
:1064400034480020504800204848002080B582B0E1
:1064500000AFB44804F05AFA0346FB71FCF745FF5D
:106460000346002B04D0FB79002B01D0012300E070
:106470000023002B01D0FB7991E2AB4804F056FADF
:106480000346FB71FCF731FF0346002B04D0FB7978
:10649000002B01D0012300E00023002B01D0FB7969
:1064A0007DE2A24804F052FA0346FB71FCF71DFF9F
:1064B0000346002B04D0FB79002B01D0012300E020
:1064C0000023002B01D0FB7969E2994804F04EFAD1
:1064D0000346FB71FCF709FF0346002B04D0FB7950
:1064E000002B01D0012300E00023002B01D0FB7919
:1064F00055E2904804F04AFA0346FB71FCF7F5FEBA
:106500000346002B04D0FB79002B01D0012300E0CF
:106510000023002B01D0FB7941E2874804F046FAC2
:106520000346FB71FCF7E1FE0346002B04D0FB7928
:10653000002B01D0012300E00023002B01D0FB79C8
:106540002DE27E4804F042FA0346FB71FCF7CDFED3
:106550000346002B04D0FB79002B01D0012300E07F
:106560000023002B01D0FB7919E2754804F03EFAB4
:106570000346FB71FCF7B9FE0346002B04D0FB7900
:10658000002B01D0012300E00023002B01D0FB7978
:1065900005E26C4804F03AFA0346FB71FCF7A5FEED
:1065A0000346002B04D0FB79002B01D0012300E02F
:1065B0000023002B01D0FB79F1E1634804F036FAA7
:1065C0000346FB71FCF791FE0346002B04D0FB79D8
:1065D000002B01D0012300E00023002B01D0FB7928
:1065E000DDE15A4804F032FA0346FB71FCF77DFE08
:1065F0000346002B04D0FB79002B01D0012300E0DF
:106600000023002B01D0FB79C9E1514804F02EFA98
:106610000346FB71FCF769FE0346002B04D0FB79AF
:10662000002B01D0012300E00023002B01D0FB79D7
:10663000B5E1484804F02AFA0346FB71FCF755FE21
:106640000346002B04D0FB79002B01D0012300E08E
:106650000023002B01D0FB79A1E13F4804F026FA8A
:106660000346FB71FCF741FE0346002B04D0FB7987
:10667000002B01D0012300E00023002B01D0FB7987
:106680008DE1364804F022FA0346FB71FCF72DFE3B
:106690000346002B04D0FB79002B01D0012300E03E
:1066A0000023002B01D0FB7979E12D4804F01EFA7C
:1066B0000346FB71FCF719FE0346002B04D0FB795F
:1066C000002B01D0012300E00023002B01D0FB7937
:1066D00065E1244804F01AFA0346FB71FCF705FE55
:1066E0000346002B04D0FB79002B01D0012300E0EE
:1066F0000023002B01D0FB7951E11B4804F016FA6E
:106700000346FB71FCF7F1FD0346002B04D0FB7937
:10671000002B01D0012300E00023002B26D0FB79C1
:106720003DE100BFA8470020C0470020C44700202B
:10673000B0470020B447002068040020E44800204F
:106740003C480020444800205448002054000020C9
:10675000944800207400002098480020F84700204A
:106760009C48002014000020E84700208E4804F0D8
:10677000EDF90346FB71FCF7B8FD0346002B04D08E
:10678000FB79002B01D0012300E00023002B01D076
:10679000FB7904E1854804F0E9F90346FB71FCF755
:1067A000A4FD0346002B04D0FB79002B01D001236C
:1067B00000E00023002B01D0FB79F0E07C4804F0DE
:1067C000E5F90346FB71FCF790FD0346002B04D06E
:1067D000FB79002B01D0012300E00023002B01D026
:1067E000FB79DCE0734804F0E1F90346FB71FCF748
:1067F0007CFD0346002B04D0FB79002B01D0012344
:1068000000E00023002B01D0FB79C8E06A4804F0C7
:10681000DDF90346FB71FCF768FD0346002B04D04D
:10682000FB79002B01D0012300E00023002B01D0D5
:10683000FB79B4E0614804F0D9F90346FB71FCF739
:1068400054FD0346002B04D0FB79002B01D001231B
:1068500000E00023002B01D0FB79A0E0584804F0B1
:10686000D5F90346FB71FCF740FD0346002B04D02D
:10687000FB79002B01D0012300E00023002B01D085
:10688000FB798CE04F4804F0D1F90346FB71FCF72B
:106890002CFD0346002B04D0FB79002B01D00123F3
:1068A00000E00023002B01D0FB7978E0464804F09B
:1068B000CDF90346FB71FCF718FD0346002B04D00D
:1068C000FB79002B01D0012300E00023002B01D035
:1068D000FB7964E03D4804F0C9F90346FB71FCF71D
:1068E00004FD0346002B04D0FB79002B01D00123CB
:1068F00000E00023002B01D0FB7950E0344804F085
:10690000C5F90346FB71FCF7F0FC0346002B04D0ED
:10691000FB79002B01D0012300E00023002B01D0E4
:10692000FB793CE02B4804F0C1F90346FB71FCF70E
:10693000DCFC0346002B04D0FB79002B01D00123A3
:1069400000E00023002B01D0FB7928E0224804F06E
:10695000BDF90346FB71FCF7C8FC0346002B04D0CD
:10696000FB79002B01D0012300E00023002B01D094
:10697000FB7914E0194804F0B9F90346FB71FCF700
:10698000B4FC0346002B04D0FB79002B01D001237B
:1069900000E00023002B01D0FB7900E0FB791846D2
:1069A0000837BD4680BD00BF50000020F4480020DD
:1069B000104800202405002034050020400000205D
:1069C0003400002020480020440000204C480020D3
:1069D000304800203448002050480020484800201B
:1069E00080B582B000AFB44804F090F90346FB7163
:1069F000FCF789FC0346002B04D0FB79002B01D067
:106A0000012300E00023002B01D0FB7991E2AB4889
:106A100004F08CF90346FB71FCF775FC0346002B70
:106A200004D0FB79002B01D0012300E00023002BD0
:106A300001D0FB797DE2A24804F088F90346FB719E
:106A4000FCF761FC0346002B04D0FB79002B01D03E
:106A5000012300E00023002B01D0FB7969E2994873
:106A600004F084F90346FB71FCF74DFC0346002B50
:106A700004D0FB79002B01D0012300E00023002B80
:106A800001D0FB7955E2904804F080F90346FB7190
:106A9000FCF739FC0346002B04D0FB79002B01D016
:106AA000012300E00023002B01D0FB7941E287485D
:106AB00004F07CF90346FB71FCF725FC0346002B30
:106AC00004D0FB79002B01D0012300E00023002B30
:106AD00001D0FB792DE27E4804F078F90346FB7182
:106AE000FCF711FC0346002B04D0FB79002B01D0EE
:106AF000012300E00023002B01D0FB7919E2754847
:106B000004F074F90346FB71FCF7FDFB0346002B10
:106B100004D0FB79002B01D0012300E00023002BDF
:106B200001D0FB7905E26C4804F070F90346FB7173
:106B3000FCF7E9FB0346002B04D0FB79002B01D0C6
:106B4000012300E00023002B01D0FB79F1E1634831
:106B500004F06CF90346FB71FCF7D5FB0346002BF0
:106B600004D0FB79002B01D0012300E00023002B8F
:106B700001D0FB79DDE15A4804F068F90346FB7166
:106B8000FCF7C1FB0346002B04D0FB79002B01D09E
:106B9000012300E00023002B01D0FB79C9E151481B
:106BA00004F064F90346FB71FCF7ADFB0346002BD0
:106BB00004D0FB79002B01D0012300E00023002B3F
:106BC00001D0FB79B5E1484804F060F90346FB7158
:106BD000FCF799FB0346002B04D0FB79002B01D076
:106BE000012300E00023002B01D0FB79A1E13F4805
:106BF00004F05CF90346FB71FCF785FB0346002BB0
:106C000004D0FB79002B01D0012300E00023002BEE
:106C100001D0FB798DE1364804F058F90346FB7149
:106C2000FCF771FB0346002B04D0FB79002B01D04D
:106C3000012300E00023002B01D0FB7979E12D48EE
:106C400004F054F90346FB71FCF75DFB0346002B8F
:106C500004D0FB79002B01D0012300E00023002B9E
:106C600001D0FB7965E1244804F050F90346FB713B
:106C7000FCF749FB0346002B04D0FB79002B01D025
:106C8000012300E00023002B01D0FB7951E11B48D8
:106C900004F04CF90346FB71FCF735FB0346002B6F
:106CA00004D0FB79002B01D0012300E00023002B4E
:106CB00026D0FB793DE100BFA8470020C047002057
:106CC000C4470020B0470020B447002068040020DB
:106CD000E44800203C48002044480020544800205C
:106CE00054000020944800207400002098480020A0
:106CF000F84700209C48002014000020E8470020AE
:106D00008E4804F023F90346FB71FCF7FCFA0346B6
:106D1000002B04D0FB79002B01D0012300E00023DD
:106D2000002B01D0FB7904E1854804F01FF90346EC
:106D3000FB71FCF7E8FA0346002B04D0FB79002B2B
:106D400001D0012300E00023002B01D0FB79F0E00B
:106D50007C4804F01BF90346FB71FCF7D4FA0346A8
:106D6000002B04D0FB79002B01D0012300E000238D
:106D7000002B01D0FB79DCE0734804F017F90346DF
:106D8000FB71FCF7C0FA0346002B04D0FB79002B03
:106D900001D0012300E00023002B01D0FB79C8E0E3
:106DA0006A4804F013F90346FB71FCF7ACFA03469A
:106DB000002B04D0FB79002B01D0012300E000233D
:106DC000002B01D0FB79B4E0614804F00FF90346D1
:106DD000FB71FCF798FA0346002B04D0FB79002BDB
:106DE00001D0012300E00023002B01D0FB79A0E0BB
:106DF000584804F00BF90346FB71FCF784FA03468C
:106E0000002B04D0FB79002B01D0012300E00023EC
:106E1000002B01D0FB798CE04F4804F007F90346C2
:106E2000FB71FCF770FA0346002B04D0FB79002BB2
:106E300001D0012300E00023002B01D0FB7978E092
:106E4000464804F003F90346FB71FCF75CFA03467D
:106E5000002B04D0FB79002B01D0012300E000239C
:106E6000002B01D0FB7964E03D4804F0FFF80346B5
:106E7000FB71FCF748FA0346002B04D0FB79002B8A
:106E800001D0012300E00023002B01D0FB7950E06A
:106E9000344804F0FBF80346FB71FCF734FA034670
:106EA000002B04D0FB79002B01D0012300E000234C
:106EB000002B01D0FB793CE02B4804F0F7F80346A7
:106EC000FB71FCF720FA0346002B04D0FB79002B62
:106ED00001D0012300E00023002B01D0FB7928E042
:106EE000224804F0F3F80346FB71FCF70CFA034662
:106EF000002B04D0FB79002B01D0012300E00023FC
:106F0000002B01D0FB7914E0194804F0EFF8034698
:106F1000FB71FCF7F8F90346002B04D0FB79002B3A
:106F200001D0012300E00023002B01D0FB7900E019
:106F3000FB7918460837BD4680BD00BF50000020D1
:106F4000F4480020104800202405002034050020CB
:106F50004000002034000020204800204400002091
:106F60004C48002030480020344800205048002081
:106F70004848002080B584B000AF78607968B24896
:106F800004F0C4F80346FB73FCF7CBF90346002B6F
:106F900004D0FB7B002B01D0012300E00023002B59
:106FA00001D0FB7BAEE27968A84804F0C1F8034643
:106FB000FB73FCF7B6F90346002B04D0FB7B002BD8
:106FC00001D0012300E00023002B01D0FB7B99E2DC
:106FD00079689F4804F0BEF80346FB73FCF7A1F9FB
:106FE0000346002B04D0FB7B002B01D0012300E0E3
:106FF0000023002B01D0FB7B84E27968954804F0E4
:10700000BBF80346FB73FCF78CF90346002B04D056
:10701000FB7B002B01D0012300E00023002B01D0DB
:10702000FB7B6FE279688C4804F0B8F80346FB7389
:10703000FCF777F90346002B04D0FB7B002B01D033
:10704000012300E00023002B01D0FB7B5AE279688A
:10705000824804F0B5F80346FB73FCF762F9034677
:10706000002B04D0FB7B002B01D0012300E0002388
:10707000002B01D0FB7B45E27968794804F0B2F837
:107080000346FB73FCF74DF90346002B04D0FB7B52
:10709000002B01D0012300E00023002B01D0FB7B5B
:1070A00030E279686F4804F0AFF80346FB73FCF7F1
:1070B00038F90346002B04D0FB7B002B01D00123C1
:1070C00000E00023002B01D0FB7B1BE279686648BF
:1070D00004F0ACF80346FB73FCF723F90346002BDE
:1070E00004D0FB7B002B01D0012300E00023002B08
:1070F00001D0FB7B06E279685C4804F0A9F80346FE
:10710000FB73FCF70EF90346002B04D0FB7B002B2E
:1071100001D0012300E00023002B01D0FB7BF1E133
:107120007968534804F0A6F80346FB73FCF7F9F8B6
:107130000346002B04D0FB7B002B01D0012300E091
:107140000023002B01D0FB7BDCE17968494804F087
:10715000A3F80346FB73FCF7E4F80346002B04D0C6
:10716000FB7B002B01D0012300E00023002B01D08A
:10717000FB7BC7E17968404804F0A0F80346FB7345
:10718000FCF7CFF80346002B04D0FB7B002B01D08B
:10719000012300E00023002B01D0FB7BB2E17968E2
:1071A000364804F09DF80346FB73FCF7BAF8034633
:1071B000002B04D0FB7B002B01D0012300E0002337
:1071C000002B01D0FB7B9DE179682D4804F09AF8F3
:1071D0000346FB73FCF7A5F80346002B04D0FB7BAA
:1071E000002B01D0012300E00023002B01D0FB7B0A
:1071F00088E17968234804F097F80346FB73FCF7AD
:1072000090F80346002B04D0FB7B002B01D0012318
:1072100000E00023002B01D0FB7B73E179681A4862
:1072200004F094F80346FB73FCF77BF80346002B4D
:1072300004D0FB7B002B01D0012300E00023002BB6
:1072400024D0FB7B5EE100BFA8470020C0470020A0
:10725000C4470020B0470020B44700206804002045
:10726000E44800203C4800204448002054480020C6
:10727000540000209448002074000020984800200A
:10728000F84700209C4800201400002079689F489F
:1072900004F06EF80346FB73FCF743F80346002B3B
:1072A00004D0FB7B002B01D0012300E00023002B46
:1072B00001D0FB7B26E17968954804F06BF8034622
:1072C000FB73FCF72EF80346002B04D0FB7B002B4E
:1072D00001D0012300E00023002B01D0FB7B11E152
:1072E00079688C4804F068F80346FB73FCF719F8DA
:1072F0000346002B04D0FB7B002B01D0012300E0D0
:107300000023002B01D0FB7BFCE07968824804F06D
:1073100065F80346FB73FCF704F80346002B04D022
:10732000FB7B002B01D0012300E00023002B01D0C8
:10733000FB7BE7E07968794804F062F80346FB7369
:10734000FBF7EFFF0346002B04D0FB7B002B01D0A3
:10735000012300E00023002B01D0FB7BD2E0796801
:107360006F4804F05FF80346FB73FBF7DAFF034650
:10737000002B04D0FB7B002B01D0012300E0002375
:10738000002B01D0FB7BBDE07968664804F05CF817
:107390000346FB73FBF7C5FF0346002B04D0FB7BC2
:1073A000002B01D0012300E00023002B01D0FB7B48
:1073B000A8E079685C4804F059F80346FB73FBF7D2
:1073C000B0FF0346002B04D0FB7B002B01D0012330
:1073D00000E00023002B01D0FB7B93E07968534849
:1073E00004F056F80346FB73FBF79BFF0346002BA4
:1073F00004D0FB7B002B01D0012300E00023002BF5
:1074000001D0FB7B7EE07968494804F053F80346DD
:10741000FB73FBF786FF0346002B04D0FB7B002B9E
:1074200001D0012300E00023002B01D0FB7B69E0A9
:107430007968404804F050F80346FB73FBF771FF8E
:107440000346002B04D0FB7B002B01D0012300E07E
:107450000023002B01D0FB7B54E07968364804F010
:107460004DF80346FB73FBF75CFF0346002B04D08B
:10747000FB7B002B01D0012300E00023002B01D077
:10748000FB7B3FE079682D4804F04AF80346FB7324
:10749000FBF747FF0346002B04D0FB7B002B01D0FA
:1074A000012300E00023002B01D0FB7B2AE0796858
:1074B000234804F047F80346FB73FBF732FF03460B
:1074C000002B04D0FB7B002B01D0012300E0002324
:1074D000002B01D0FB7B15E079681A4804F044F8D2
:1074E0000346FB73FBF71DFF0346002B04D0FB7B19
:1074F000002B01D0012300E00023002B01D0FB7BF7
:1075000000E0FB7B18461037BD4680BDE8470020F1
:1075100050000020F44800201048002024050020DE
:1075200034050020400000203400002020480020C6
:10753000440000204C4800203048002034480020FF
:10754000504800204848002080B584B000AF7860E3
:107550007968B24804F01AF80346FB73FBF7F4FEAF
:107560000346002B04D0FB7B002B01D0012300E05D
:107570000023002B01D0FB7BAEE27968A84804F021
:1075800017F80346FB73FBF7DFFE0346002B04D01E
:10759000FB7B002B01D0012300E00023002B01D056
:1075A000FB7B99E279689F4804F014F80346FB736B
:1075B000FBF7CAFE0346002B04D0FB7B002B01D057
:1075C000012300E00023002B01D0FB7B84E27968DB
:1075D000954804F011F80346FB73FBF7B5FE03462C
:1075E000002B04D0FB7B002B01D0012300E0002303
:1075F000002B01D0FB7B6FE279688C4804F00EF819
:107600000346FB73FBF7A0FE0346002B04D0FB7B75
:10761000002B01D0012300E00023002B01D0FB7BD5
:107620005AE27968824804F00BF80346FB73FBF7D3
:107630008BFE0346002B04D0FB7B002B01D00123E3
:1076400000E00023002B01D0FB7B45E279687948FC
:1076500004F008F80346FB73FBF776FE0346002BA5
:1076600004D0FB7B002B01D0012300E00023002B82
:1076700001D0FB7B30E279686F4804F005F80346DF
:10768000FB73FBF761FE0346002B04D0FB7B002B52
:1076900001D0012300E00023002B01D0FB7B1BE283
:1076A0007968664804F002F80346FB73FBF74CFE6A
:1076B0000346002B04D0FB7B002B01D0012300E00C
:1076C0000023002B01D0FB7B06E279685C4803F0C5
:1076D000FFFF0346FB73FBF737FE0346002B04D086
:1076E000FB7B002B01D0012300E00023002B01D005
:1076F000FB7BF1E17968534803F0FCFF0346FB7321
:10770000FBF722FE0346002B04D0FB7B002B01D0AD
:10771000012300E00023002B01D0FB7BDCE1796832
:10772000494803F0F9FF0346FB73FBF70DFE0346E0
:10773000002B04D0FB7B002B01D0012300E00023B1
:10774000002B01D0FB7BC7E17968404803F0F6FFCE
:107750000346FB73FBF7F8FD0346002B04D0FB7BCD
:10776000002B01D0012300E00023002B01D0FB7B84
:10777000B2E17968364803F0F3FF0346FB73FBF789
:10778000E3FD0346002B04D0FB7B002B01D001233B
:1077900000E00023002B01D0FB7B9DE179682D48A0
:1077A00003F0F0FF0346FB73FBF7CEFD0346002B0F
:1077B00004D0FB7B002B01D0012300E00023002B31
:1077C00001D0FB7B88E17968234803F0EDFF034695
:1077D000FB73FBF7B9FD0346002B04D0FB7B002BAA
:1077E00001D0012300E00023002B01D0FB7B73E1DB
:1077F00079681A4803F0EAFF0346FB73FBF7A4FD20
:107800000346002B04D0FB7B002B01D0012300E0BA
:107810000023002B24D0FB7B5EE100BFA8470020A3
:10782000C0470020C4470020B0470020B4470020D4
:1078300068040020E44800203C4800204448002020
:107840005448002054000020944800207400002078
:1078500098480020F84700209C4800201400002091
:1078600079689F4803F0C4FF0346FB73FBF76CFD88
:107870000346002B04D0FB7B002B01D0012300E04A
:107880000023002B01D0FB7B26E17968954803F0AB
:10789000C1FF0346FB73FBF757FD0346002B04D0E3
:1078A000FB7B002B01D0012300E00023002B01D043
:1078B000FB7B11E179688C4803F0BEFF0346FB7344
:1078C000FBF742FD0346002B04D0FB7B002B01D0CD
:1078D000012300E00023002B01D0FB7BFCE0796852
:1078E000824803F0BBFF0346FB73FBF72DFD034605
:1078F000002B04D0FB7B002B01D0012300E00023F0
:10790000002B01D0FB7BE7E07968794803F0B8FFF2
:107910000346FB73FBF718FD0346002B04D0FB7BEB
:10792000002B01D0012300E00023002B01D0FB7BC2
:10793000D2E079686F4803F0B5FF0346FB73FBF7AD
:1079400003FD0346002B04D0FB7B002B01D0012359
:1079500000E00023002B01D0FB7BBDE07968664886
:1079600003F0B2FF0346FB73FBF7EEFC0346002B6C
:1079700004D0FB7B002B01D0012300E00023002B6F
:1079800001D0FB7BA8E079685C4803F0AFFF0346B9
:10799000FB73FBF7D9FC0346002B04D0FB7B002BC9
:1079A00001D0012300E00023002B01D0FB7B93E0FA
:1079B0007968534803F0ACFF0346FB73FBF7C4FC44
:1079C0000346002B04D0FB7B002B01D0012300E0F9
:1079D0000023002B01D0FB7B7EE07968494803F04F
:1079E000A9FF0346FB73FBF7AFFC0346002B04D053
:1079F000FB7B002B01D0012300E00023002B01D0F2
:107A0000FB7B69E07968404803F0A6FF0346FB73FF
:107A1000FBF79AFC0346002B04D0FB7B002B01D024
:107A2000012300E00023002B01D0FB7B54E07968A8
:107A3000364803F0A3FF0346FB73FBF785FC0346C0
:107A4000002B04D0FB7B002B01D0012300E000239E
:107A5000002B01D0FB7B3FE079682D4803F0A0FFAD
:107A60000346FB73FBF770FC0346002B04D0FB7B43
:107A7000002B01D0012300E00023002B01D0FB7B71
:107A80002AE07968234803F09DFF0346FB73FBF768
:107A90005BFC0346002B04D0FB7B002B01D00123B1
:107AA00000E00023002B01D0FB7B15E079681A4829
:107AB00003F09AFF0346FB73FBF746FC0346002BDB
:107AC00004D0FB7B002B01D0012300E00023002B1E
:107AD00001D0FB7B00E0FB7B18461037BD4680BD24
